{
  "abi": [
    {
      "inputs": [
        {
          "internalType": "address",
          "name": "_owner",
          "type": "address"
        },
        {
          "internalType": "address",
          "name": "_mainCurrency",
          "type": "address"
        }
      ],
      "stateMutability": "nonpayable",
      "type": "constructor"
    },
    {
      "stateMutability": "payable",
      "type": "fallback"
    },
    {
      "inputs": [
        {
          "internalType": "address",
          "name": "router",
          "type": "address"
        },
        {
          "internalType": "address[]",
          "name": "tokens",
          "type": "address[]"
        },
        {
          "internalType": "bool",
          "name": "force",
          "type": "bool"
        }
      ],
      "name": "approveRouter",
      "outputs": [],
      "stateMutability": "nonpayable",
      "type": "function"
    },
    {
      "inputs": [],
      "name": "mainCurrency",
      "outputs": [
        {
          "internalType": "contract IWETH",
          "name": "",
          "type": "address"
        }
      ],
      "stateMutability": "view",
      "type": "function"
    },
    {
      "inputs": [],
      "name": "owner",
      "outputs": [
        {
          "internalType": "address",
          "name": "",
          "type": "address"
        }
      ],
      "stateMutability": "view",
      "type": "function"
    },
    {
      "inputs": [
        {
          "internalType": "contract IERC20[]",
          "name": "tokens",
          "type": "address[]"
        },
        {
          "internalType": "uint256[]",
          "name": "amounts",
          "type": "uint256[]"
        },
        {
          "internalType": "uint256[]",
          "name": "",
          "type": "uint256[]"
        },
        {
          "internalType": "bytes",
          "name": "data",
          "type": "bytes"
        }
      ],
      "name": "receiveFlashLoan",
      "outputs": [],
      "stateMutability": "nonpayable",
      "type": "function"
    },
    {
      "inputs": [
        {
          "internalType": "address",
          "name": "token",
          "type": "address"
        }
      ],
      "name": "recoverToken",
      "outputs": [],
      "stateMutability": "payable",
      "type": "function"
    },
    {
      "inputs": [
        {
          "internalType": "address",
          "name": "sender",
          "type": "address"
        },
        {
          "internalType": "uint256",
          "name": "amount0",
          "type": "uint256"
        },
        {
          "internalType": "uint256",
          "name": "amount1",
          "type": "uint256"
        },
        {
          "internalType": "bytes",
          "name": "data",
          "type": "bytes"
        }
      ],
      "name": "uniswapV2Call",
      "outputs": [],
      "stateMutability": "nonpayable",
      "type": "function"
    },
    {
      "stateMutability": "payable",
      "type": "receive"
    }
  ],
  "bytecode": {
    "object": "0x60c060405234801561001057600080fd5b50604051620016773803806200167783398101604081905261003191610064565b6001600160a01b039182166080521660a052610097565b80516001600160a01b038116811461005f57600080fd5b919050565b6000806040838503121561007757600080fd5b61008083610048565b915061008e60208401610048565b90509250929050565b60805160a0516115a7620000d0600039600081816060015261036c01526000818160d5015281816103dc015261089a01526115a76000f3fe6080604052600436106100595760003560e01c806310d1e85c1461033a578063315bccd61461035a5780633d3b6e0d146103aa5780638da5cb5b146103ca5780639be65a60146103fe578063f04f270714610411576100cf565b366100cf577f00000000000000000000000000000000000000000000000000000000000000006001600160a01b031663d0e30db0346040518263ffffffff1660e01b81526004016000604051808303818588803b1580156100b957600080fd5b505af11580156100cd573d6000803e3d6000fd5b005b600080807f000000000000000000000000000000000000000000000000000000000000000033811461010057600080fd5b60003593506020359250604035915082156102fa5760803560018490036102025760408051600180825281830190925260009160208083019080368337019050509050818160008151811061015757610157610e7b565b6001600160a01b03929092166020928302919091019091015260408051600180825281830190925260009181602001602082028036833701905050905086816000815181106101a8576101a8610e7b565b6020908102919091010152604051632e1c224f60e11b81526001600160a01b03861690635c38449e906101e8903090869086906000903690600401610eba565b600060405180830381600087803b1580156100b957600080fd5b836002036100cd5760008390506000816001600160a01b0316630dfe16816040518163ffffffff1660e01b81526004016020604051808303816000875af1158015610251573d6000803e3d6000fd5b505050506040513d601f19601f820116820180604052508101906102759190610f78565b9050806001600160a01b0316836001600160a01b0316036102c55760405163022c0d9f60e01b81526001600160a01b0383169063022c0d9f906101e8908a90600090309082903690600401610f9c565b60405163022c0d9f60e01b81526001600160a01b0383169063022c0d9f906101e8906000908b90309083903690600401610f9c565b6100cd6000368080601f01602080910402602001604051908101604052809392919081815260200183838082843760009201919091525061043192505050565b34801561034657600080fd5b506100cd61035536600461106b565b61063a565b34801561036657600080fd5b5061038e7f000000000000000000000000000000000000000000000000000000000000000081565b6040516001600160a01b03909116815260200160405180910390f35b3480156103b657600080fd5b506100cd6103c5366004611110565b6107a7565b3480156103d657600080fd5b5061038e7f000000000000000000000000000000000000000000000000000000000000000081565b6100cd61040c3660046111d4565b61088f565b34801561041d57600080fd5b506100cd61042c366004611257565b610975565b8051602082015190606090046000190160005b8160ff168160ff1610156106335760608181028501608081015160a082015160c090920151604080516002808252818701835293959293909160208301908036833701905050905082816000815181106104a0576104a0610e7b565b60200260200101906001600160a01b031690816001600160a01b03168152505081816001815181106104d4576104d4610e7b565b60200260200101906001600160a01b031690816001600160a01b031681525050610500848260006107a7565b6040805160028082526060808301845292602083019080368337019050509050838160008151811061053457610534610e7b565b60200260200101906001600160a01b031690816001600160a01b031681525050828160018151811061056857610568610e7b565b6001600160a01b039283166020918202929092010152859060009082166338ed17398b83863061059942603c61136c565b6040518663ffffffff1660e01b81526004016105b9959493929190611384565b6000604051808303816000875af11580156105d8573d6000803e3d6000fd5b505050506040513d6000823e601f3d908101601f1916820160405261060091908101906113f5565b90508060018151811061061557610615610e7b565b60200260200101519950878060010198505050505050505050610444565b5050919050565b606081015160a0820151336001600160a01b038316146106905760405162461bcd60e51b815260206004820152600c60248201526b1b9bdd081b1bd85b941bdbdb60a21b60448201526064015b60405180910390fd5b6001600160a01b03861630146106d55760405162461bcd60e51b815260206004820152600a6024820152693737ba1039b2b73232b960b11b6044820152606401610687565b6106de83610431565b50600085156106ed57856106ef565b845b905060006103e561070183600361147b565b61070b919061149a565b61071690600161136c565b90506000610724828461136c565b60405163a9059cbb60e01b81526001600160a01b038781166004830152602482018390529192509085169063a9059cbb906044016020604051808303816000875af1158015610777573d6000803e3d6000fd5b505050506040513d601f19601f8201168201806040525081019061079b91906114bc565b50505050505050505050565b81516000199060005b818110156108875760008582815181106107cc576107cc610e7b565b6020908102919091010151604051636eb1769f60e11b81523060048201526001600160a01b03898116602483015291925060009183169063dd62ed3e90604401602060405180830381865afa158015610829573d6000803e3d6000fd5b505050506040513d601f19601f8201168201806040525081019061084d91906114d9565b90508580610864575061086160028661149a565b81105b1561087d5761087d6001600160a01b0383168987610a83565b50506001016107b0565b505050505050565b336001600160a01b037f000000000000000000000000000000000000000000000000000000000000000016146108f35760405162461bcd60e51b81526020600482015260096024820152683737ba1037bbb732b960b91b6044820152606401610687565b6040516370a0823160e01b81523060048201526109729033906001600160a01b038416906370a0823190602401602060405180830381865afa15801561093d573d6000803e3d6000fd5b505050506040513d601f19601f8201168201806040525081019061096191906114d9565b6001600160a01b0384169190610bd0565b50565b6060810151336001600160a01b038216146109be5760405162461bcd60e51b81526020600482015260096024820152681b9bdd081d985d5b1d60ba1b6044820152606401610687565b6000856000815181106109d3576109d3610e7b565b602002602001015190506000856000815181106109f2576109f2610e7b565b60200260200101519050610a0584610431565b5060405163a9059cbb60e01b81526001600160a01b0384811660048301526024820183905283169063a9059cbb906044016020604051808303816000875af1158015610a55573d6000803e3d6000fd5b505050506040513d601f19601f82011682018060405250810190610a7991906114bc565b5050505050505050565b801580610afd5750604051636eb1769f60e11b81523060048201526001600160a01b03838116602483015284169063dd62ed3e90604401602060405180830381865afa158015610ad7573d6000803e3d6000fd5b505050506040513d601f19601f82011682018060405250810190610afb91906114d9565b155b610b685760405162461bcd60e51b815260206004820152603660248201527f5361666545524332303a20617070726f76652066726f6d206e6f6e2d7a65726f60448201527520746f206e6f6e2d7a65726f20616c6c6f77616e636560501b6064820152608401610687565b6040516001600160a01b038316602482015260448101829052610bcb90849063095ea7b360e01b906064015b60408051601f198184030181529190526020810180516001600160e01b03166001600160e01b031990931692909217909152610c00565b505050565b6040516001600160a01b038316602482015260448101829052610bcb90849063a9059cbb60e01b90606401610b94565b6000610c55826040518060400160405280602081526020017f5361666545524332303a206c6f772d6c6576656c2063616c6c206661696c6564815250856001600160a01b0316610cd59092919063ffffffff16565b9050805160001480610c76575080806020019051810190610c7691906114bc565b610bcb5760405162461bcd60e51b815260206004820152602a60248201527f5361666545524332303a204552433230206f7065726174696f6e20646964206e6044820152691bdd081cdd58d8d9595960b21b6064820152608401610687565b6060610ce48484600085610cec565b949350505050565b606082471015610d4d5760405162461bcd60e51b815260206004820152602660248201527f416464726573733a20696e73756666696369656e742062616c616e636520666f6044820152651c8818d85b1b60d21b6064820152608401610687565b600080866001600160a01b03168587604051610d699190611522565b60006040518083038185875af1925050503d8060008114610da6576040519150601f19603f3d011682016040523d82523d6000602084013e610dab565b606091505b5091509150610dbc87838387610dc7565b979650505050505050565b60608315610e36578251600003610e2f576001600160a01b0385163b610e2f5760405162461bcd60e51b815260206004820152601d60248201527f416464726573733a2063616c6c20746f206e6f6e2d636f6e74726163740000006044820152606401610687565b5081610ce4565b610ce48383815115610e4b5781518083602001fd5b8060405162461bcd60e51b8152600401610687919061153e565b634e487b7160e01b600052604160045260246000fd5b634e487b7160e01b600052603260045260246000fd5b81835281816020850137506000828201602090810191909152601f909101601f19169091010190565b6001600160a01b0386811682526080602080840182905287519184018290526000928882019290919060a0860190855b81811015610f08578551851683529483019491830191600101610eea565b5050858103604087015288518082529082019350915080880160005b83811015610f4057815185529382019390820190600101610f24565b505050508281036060840152610f57818587610e91565b98975050505050505050565b6001600160a01b038116811461097257600080fd5b600060208284031215610f8a57600080fd5b8151610f9581610f63565b9392505050565b85815284602082015260018060a01b0384166040820152608060608201526000610dbc608083018486610e91565b604051601f8201601f1916810167ffffffffffffffff81118282101715610ff357610ff3610e65565b604052919050565b600082601f83011261100c57600080fd5b813567ffffffffffffffff81111561102657611026610e65565b611039601f8201601f1916602001610fca565b81815284602083860101111561104e57600080fd5b816020850160208301376000918101602001919091529392505050565b6000806000806080858703121561108157600080fd5b843561108c81610f63565b93506020850135925060408501359150606085013567ffffffffffffffff8111156110b657600080fd5b6110c287828801610ffb565b91505092959194509250565b600067ffffffffffffffff8211156110e8576110e8610e65565b5060051b60200190565b801515811461097257600080fd5b803561110b816110f2565b919050565b60008060006060848603121561112557600080fd5b833561113081610f63565b925060208481013567ffffffffffffffff81111561114d57600080fd5b8501601f8101871361115e57600080fd5b803561117161116c826110ce565b610fca565b81815260059190911b8201830190838101908983111561119057600080fd5b928401925b828410156111b75783356111a881610f63565b82529284019290840190611195565b80965050505050506111cb60408501611100565b90509250925092565b6000602082840312156111e657600080fd5b8135610f9581610f63565b600082601f83011261120257600080fd5b8135602061121261116c836110ce565b82815260059290921b8401810191818101908684111561123157600080fd5b8286015b8481101561124c5780358352918301918301611235565b509695505050505050565b6000806000806080858703121561126d57600080fd5b843567ffffffffffffffff8082111561128557600080fd5b818701915087601f83011261129957600080fd5b813560206112a961116c836110ce565b82815260059290921b8401810191818101908b8411156112c857600080fd5b948201945b838610156112ef5785356112e081610f63565b825294820194908201906112cd565b9850508801359250508082111561130557600080fd5b611311888389016111f1565b9450604087013591508082111561132757600080fd5b611333888389016111f1565b9350606087013591508082111561134957600080fd5b506110c287828801610ffb565b634e487b7160e01b600052601160045260246000fd5b6000821982111561137f5761137f611356565b500190565b600060a082018783526020878185015260a0604085015281875180845260c086019150828901935060005b818110156113d45784516001600160a01b0316835293830193918301916001016113af565b50506001600160a01b03969096166060850152505050608001529392505050565b6000602080838503121561140857600080fd5b825167ffffffffffffffff81111561141f57600080fd5b8301601f8101851361143057600080fd5b805161143e61116c826110ce565b81815260059190911b8201830190838101908783111561145d57600080fd5b928401925b82841015610dbc57835182529284019290840190611462565b600081600019048311821515161561149557611495611356565b500290565b6000826114b757634e487b7160e01b600052601260045260246000fd5b500490565b6000602082840312156114ce57600080fd5b8151610f95816110f2565b6000602082840312156114eb57600080fd5b5051919050565b60005b8381101561150d5781810151838201526020016114f5565b8381111561151c576000848401525b50505050565b600082516115348184602087016114f2565b9190910192915050565b602081526000825180602084015261155d8160408501602087016114f2565b601f01601f1916919091016040019291505056fea264697066735822122025d5d64a114044d4b8f18c4cdb6f7ecf720a7d644517a19768a913e7f0a23fa264736f6c634300080d0033",
    "linkReferences": {}
  },
  "methodIdentifiers": {
    "approveRouter(address,address[],bool)": "3d3b6e0d",
    "mainCurrency()": "315bccd6",
    "owner()": "8da5cb5b",
    "receiveFlashLoan(address[],uint256[],uint256[],bytes)": "f04f2707",
    "recoverToken(address)": "9be65a60",
    "uniswapV2Call(address,uint256,uint256,bytes)": "10d1e85c"
  },
  "id": 4
}